:020000040800F2
:10000000B8060020990100085D0C00080D0A0008E0
:100010005D0B00085B080008771600080000000070
:100020000000000000000000000000008111000836
:100030005F080008000000004D0F0008951200083E
:10004000B3010008B3010008B3010008B3010008C0
:10005000B3010008B3010008B3010008B3010008B0
:10006000B3010008B3010008B3010008B3010008A0
:10007000B3010008B3010008B3010008B301000890
:10008000B3010008B3010008B3010008B301000880
:10009000B3010008B3010008B3010008B301000870
:1000A000B3010008B3010008B3010008B301000860
:1000B000B3010008B3010008B3010008B301000850
:1000C000B3010008B3010008B3010008B301000840
:1000D000B301000855140008B3010008B30100087B
:1000E000B3010008B3010008B3010008B301000820
:1000F000B301000800F002F800F03EF80AA090E812
:10010000000C82448344AAF10107DA4501D100F0D2
:1001100033F8AFF2090EBAE80F0013F0010F18BF61
:10012000FB1A43F001031847A81A0000C81A000080
:10013000103A24BF78C878C1FAD8520724BF30C813
:1001400030C144BF04680C607047000000230024E5
:1001500000250026103A28BF78C1FBD8520728BFD7
:1001600030C148BF0B6070471FB59DE8030000F029
:1001700037F91FBD10B510BD00F0E8F91146FFF7C3
:10018000F3FF01F07AFA00F006FA03B4FFF7F2FF8A
:1001900003BC00F037FA00000948804709480047CF
:1001A000FEE7FEE7FEE7FEE7FEE7FEE7FEE7FEE727
:1001B000FEE7FEE704480549054A064B7047000084
:1001C00099120008F5000008B8000020B8060020C9
:1001D000B8020020B802002070B5064600F0E4F82E
:1001E000056806F10B0020F00704B4429CBF002014
:1001F00070BD2B466A68BAB11068A04210D304F1F2
:10020000080188423CBF5068586007D351681019F4
:1002100041601168091B016058601460101D70BDB9
:1002200013465268002AE7D12146284600F0C4F858
:100230000028DED170BD70B50446051F00F0B4F88B
:100240000068002C14BF446870BD002C18BFAC427D
:100250003CBF20466468F8D301680A18AA4218BF58
:10026000456003D12A680546114401602868411998
:10027000A1421CBF6C6070BD616869602168084460
:10028000286070BD10B5431C02E010F8011B71B16D
:100290008107FAD14FF0013202C88C1A8C4314EA5C
:1002A000C211F9D0C01A0A0603D0C01E10BDC01A70
:1002B00010BD0A0401D0801E10BD0902FCD0401EF2
:1002C00010BD032A40F2308010F0030C00F01580BE
:1002D00011F8013BBCF1020F624498BF11F801CB49
:1002E00000F8013B38BF11F8013BA2F1040298BFAE
:1002F00000F801CB38BF00F8013B11F0030300F018
:10030000A580083AC0F0088051F8043B083A51F83B
:1003100004CBA0E80810F5E7121D5CBF51F8043BC0
:1003200040F8043BAFF30080D20724BF11F8013B33
:1003300011F801CB48BF11F8012B24BF00F8013B95
:1003400000F801CB48BF00F8012B704702F0FF0313
:1003500043EA032242EA024200F002B84FF00002F0
:100360000429C0F0128010F0030C00F0A380CCF13F
:10037000040CBCF1020F18BF00F8012BA8BF20F835
:10038000022BA1EB0C0100F095B85FEAC17C24BF01
:1003900000F8012B00F8012B48BF00F8012B704733
:1003A0007047704770470000004870475C000020AD
:1003B000704770477047704738B504460A460020BA
:1003C0006946AFF30080002808BF38BD0246009997
:1003D000204600F099F8012038BD012000F0AEB8A9
:1003E000F8B5AFF30080054600200C46102000BF92
:1003F0000646A819A0420DD9324669460020AFF33F
:100400000080070008BF00F099F80098A04218BFCC
:100410000546C419FFF7C8FF05600746F01D20F028
:1004200007004619284600F00AF8B44208BFF8BD94
:10043000A21B31463868BDE8F84000F065B80021DD
:100440000160C0E9011070471020704710B5203AD4
:10045000C0F00B80B1E81850203AA0E81850B1E87D
:100460001850A0E81850BFF4F5AF5FEA027C24BF33
:10047000B1E81850A0E8185044BF18C918C0BDE82A
:1004800010405FEA827C24BF51F8043B40F8043BF3
:1004900008BF7047D20728BF31F8023B48BF11F8A8
:1004A000012B28BF20F8023B48BF00F8012B704702
:1004B0004FF0000200B5134694469646203922BFFD
:1004C000A0E80C50A0E80C50B1F12001BFF4F7AF48
:1004D000090728BFA0E80C5048BF0CC05DF804EB2A
:1004E000890028BF40F8042B08BF704748BF20F898
:1004F000022B11F0804F18BF00F8012B704700004D
:100500000048704754000020034640688C4600288D
:1005100018BF88423CBF03464068F8D318681844A7
:10052000884207D00CF1030020F00700001D411A9B
:10053000521A0146081D0A60FFF77DBE10B500F093
:1005400039F8BDE8104000F02FB870477546FFF746
:10055000D7FFAE4605006946534620F007008546A2
:1005600018B020B5FFF726FEBDE820404FF000068A
:100570004FF000074FF000084FF0000B21F007018B
:10058000AC46ACE8C009ACE8C009ACE8C009ACE8CE
:10059000C0098D46704710B50446AFF30080204671
:1005A000BDE81040FFF7F1BD002801D000F02AB8E7
:1005B0007047000010B5012805D0002103A000F00D
:1005C00027F8012010BD09A1F8E700005349475260
:1005D000544D454D3A204F7574206F662068656113
:1005E00070206D656D6F7279000000003A204865DB
:1005F0006170206D656D6F727920636F72727570B6
:100600007465640001491820ABBEFEE726000200B5
:1006100070B505460C460A2000E06D1C00F011F88C
:1006200035B128780028F8D102E0641C00F009F800
:1006300014B120780028F8D1BDE870400A20AFF34B
:10064000008008B569468DF800000320ABBE08BDE8
:1006500021B1826842F00102826003E0826822F0E8
:10066000010282607047000010B5044605488442CC
:1006700007D10121401500F08BFC0021601500F02E
:1006800087FC10BD002401400146886D80B2704790
:100690000246002013680B400BB1012000E000204F
:1006A0007047000030B50246002000235068104C0F
:1006B00020400D790C6844EA05242043506090687E
:1006C0000C4C2040D1E903542C438D682C434D79C8
:1006D00044EA450420439060106B20F0F8700C7DD4
:1006E000641EE4B2234340EA0350106330BD0000AF
:1006F000FFFEFFFCFDF7FFC0F0B504460D460020ED
:1007000000211D2D11DDE06DA5F11E0606EB46074B
:10071000072606FA07F18843A5F11E0606EB4606F2
:1007200003FA06F10843E06534E0132D11DDE068BB
:10073000A5F1140606EB4607072606FA07F18843DB
:10074000A5F1140606EB460603FA06F10843E0603D
:1007500020E0092D11DD2069A5F10A0606EB460708
:10076000072606FA07F18843A5F10A0606EB4606B6
:1007700003FA06F1084320610CE0606905EB4507C8
:10078000072606FA07F1884305EB450603FA06F14A
:1007900008436061072A0FDA206C561E06EB8607B5
:1007A0001F2606FA07F18843561E06EB860605FA51
:1007B00006F1084320644AE00D2A0FDAE06BD61FE9
:1007C00006EB86071F2606FA07F18843D61F06EBBD
:1007D000860605FA06F10843E06338E0132A11DAC9
:1007E000A06BA2F10D0606EB86071F2606FA07F19D
:1007F0008843A2F10D0606EB860605FA06F10843CA
:10080000A06324E0192A11DA606BA2F1130606EB4B
:1008100086071F2606FA07F18843A2F1130606EBA6
:10082000860605FA06F10843606310E0206BA2F12A
:10083000190606EB86071F2606FA07F18843A2F180
:10084000190606EB860605FA06F108432063F0BD9B
:10085000816841F080418160704700BFFEE77047CA
:1008600010B5044608E0002304E0642000F009F815
:10087000581CC3B20A2BF8DB201EA4F10104F2D1EC
:1008800010BD002103E000BF00BF4A1CD1B281426D
:10089000F9DB7047F0B502460B4600210024002525
:1008A000002000BF35E0012606FA01F41E6806EAC2
:1008B0000405A5422CD110684F000326BE40B0436A
:1008C0001E794F00BE40304310601E79012E02D0C9
:1008D0001E79022E12D190684F000326BE40B0430D
:1008E0005E794F00BE4030439060908801268E4074
:1008F000B0439E798E40B6B230439080D0684F00AE
:100900000326BE40B043DE794F00BE403043D06086
:10091000491C1029C7D3F0BDF0B5002300244D07B2
:10092000ED0E02FA05F3CE1000F1200555F8265021
:100930004E07F70E0F26BE40B543CF1000F120063C
:1009400046F82750CE1000F1200555F8265045EA0C
:100950000304CE1000F1200545F82640F0BD418388
:1009600070470183704700002DE9FC5F4FF0000ADB
:10097000D34600BF14E02048FFF76AFF00BF022102
:100980001D48FFF785FE0028F9D01B48FFF77CFEC5
:1009900082440A20FFF764FF0BF1010000F0FF0B17
:1009A000BBF1080FE7DB50464FEAEA710AEB5171E1
:1009B0004FEAE10A504600F0F6FF06460F4A104B98
:1009C00001F008F8044600220E4B00F065FE804658
:1009D00000220D4B00F0FEFFCDE9000100F0B4FF56
:1009E000824650464FEAEA710AEB11714FEA211A2A
:1009F0005046BDE8FC9F000000240140295C8FC2E6
:100A0000F5280A400000B0400000594000BFFEE752
:100A10002DE9F04180460E4617463846FFF7DCFBCD
:100A2000054639462846FFF799FC3A46414628468E
:100A3000FFF747FC002454E0285D612806DB285DB1
:100A4000662803DC285D20F020002855601C285C07
:100A5000612808DB285D662805DC601C285C20F026
:100A60002001601C2954285D41280CDB285D4628A4
:100A700009DC295DC91F0907090E204604EBD07265
:100A80005210B15407E0295D0907090E204604EB16
:100A9000D0725210B154601C285C412812DB601CDB
:100AA000285C46280EDC204604EBD0714910725CAD
:100AB000611C695C37390A43D1B204EBD072521021
:100AC000B1540DE0204604EBD0714910715C621CFA
:100AD000AA5C22F03002114304EBD0725210B154E0
:100AE000A41CBC42A8DB2846FFF7A5FB0020BDE8FC
:100AF000F08130B503460C460021002000BF1DE008
:100B0000655C2809092803DD00F13705E8B202E039
:100B100000F13005E8B203F81100655C05F00F0044
:100B2000092803DD00F13705E8B202E000F13005E5
:100B3000E8B24D006D1C58554D1CE9B29142DFDB07
:100B400030BD000010B5044C607D20B10020607500
:100B5000204600F0C1F810BD1C00002000BFFEE7D9
:100B600010B54FF400710448FFF7FBFE4FF48061AD
:100B70000148FFF7F4FE10BD000002401CB5012142
:100B8000084600F0E5F94FF4C060009001208DF8B0
:100B9000040000208DF8060003208DF805000020D9
:100BA0008DF8070069460248FFF774FE1CBD00007F
:100BB0000000024070B505460C467CB3012D17D0ED
:100BC000022D2CD1012C0ADD00F02CF84FF4FA7123
:100BD00004FB01F0FFF744FE00F032F807E000F0FC
:100BE00021F840F2D660FFF73BFE00F029F817E04D
:100BF000012C0ADDFFF7B4FF4FF4FA7104FB01F09A
:100C0000FFF72EFE00F01CF807E0FFF7A9FF40F207
:100C10007260FFF725FE00F013F801E001E000BF6D
:100C200000BF70BD10B54FF400710448FFF797FE88
:100C30004FF480610148FFF794FE10BD00000240B0
:100C400010B54FF400710448FFF789FE4FF480613E
:100C50000148FFF784FE10BD00000240704700000D
:100C600070B5002100230F22C4781CB3174C2468F0
:100C700004F4E064C4F5E064C4F30721C1F10404A2
:100C8000E3B20A4144789C40E1B2847814402143A5
:100C90000C07210E0E4C05786155047804F01F05F1
:100CA0000124AC4005786D11AD0005F1E025C5F8D3
:100CB000004109E0047804F01F050124AC40054D13
:100CC0000678761145F8264070BD00000CED00E076
:100CD00000E400E080E100E02DE9FF470546002444
:100CE00000260027DFF8988030220F216846FFF7A2
:100CF0002DFB2878002840D02846FFF7C3FA81460C
:100D00004A4669462846FFF783FE00BF2AE01DF8E1
:100D10000400AA2824D1601C1DF8000055281FD10A
:100D20009DF802609DF80270012405E0A01C1DF8EA
:100D300000004740601CC4B2701EA042F6DC701C6C
:100D40001DF80000B84207D10DF1030000F026F8AD
:100D5000002004B0BDE8F08709210AA000F060FB84
:100D6000601CC4B20D2CD2DD092109A000F058FB93
:100D7000302214214046FFF7E9FA0020E9E700009D
:100D80001C0000204552524F525F340D0A000000F3
:100D90004552524F525F310D0A0000002DE9F041DB
:100DA0000446434D434E207800287FD02078012808
:100DB00004D002284AD0032872D158E06078012874
:100DC00004D002280ED003283DD117E002203A4972
:100DD00008700E2139A000F023FBA1780220FFF754
:100DE000E9FE31E00120344908700E2137A000F0FF
:100DF00017FBA1780120FFF7DDFE25E003202E4937
:100E0000087000F071F83046FFF73CFAC7B23A4676
:100E1000314605F11600FFF76CFE05F11600FFF7ED
:100E200031FAC7B2394605F1160000F0F9FA05F1BA
:100E30001600FFF727FA07463022394605F116005B
:100E4000FFF784FA00E000BF00BF2EE060780128C1
:100E500002D0022808D103E004201749087004E0FA
:100E600005201549087000E000BF00BF1DE0607854
:100E7000012804D0022806D003280ED109E006205C
:100E80000D4908700AE007200B49087006E00DE0E4
:100E900006E008200849087000BF00BF00BF04E05A
:100EA00009210EA000F0BCFA00BF00BFBDE8F08130
:100EB0001C00002048000020000000203535414182
:100EC00030353031303146454642000035354141FC
:100ED0003035303230314645463800004552524FA9
:100EE000525F320D0A000000FEB50025164E0020AC
:100EF00000900190029055208DF80000AA208DF8F6
:100F0000010005208DF8020001208DF80300032068
:100F10008DF80400FFF728FDC0B28DF80500052507
:100F2000002405E0E01C1DF800004540601CC4B230
:100F3000042CF7DB8DF80650009830600198706043
:100F4000BDF808003081FEBD480000207047000059
:100F500029B1064A12680243044B1A6004E0034AAE
:100F600012688243014B1A60704700001C3802402F
:100F700029B1064A12680243044B1A6004E0034A8E
:100F800012688243014B1A6070470000203802400B
:100F900029B1064A12680243044B1A6004E0034A6E
:100FA00012688243014B1A607047000014380240F7
:100FB000F0B5002100220023002600240025374F31
:100FC0003F6807F00C0131B1042912D0082913D071
:100FD0000C2934D113E0314F3F1F3F68C7F342352E
:100FE0006F1C4FF0010C0CFA07FC4FEACC3707607E
:100FF00033E02B4F076030E02A4F07602DE0274F8A
:101000003F6807F47012254F3F6807F44003264FEE
:1010100007EB92473A78012707EB93531F4F3F683E
:1010200007F480362EB91E4F5743B7FBF3F707601E
:1010300004E01C4F5743B7FBF3F707600DE0174F71
:101040003F1F3F68C7F342356F1C4FF0010C0CFA8D
:1010500007FC4FEACC37076000BF00BF0F4F3F6867
:1010600007F0F0010909114F7C5C0768E740476011
:101070000A4F3F6807F4E061090A0C4F7C5C47683F
:10108000E7408760054F3F6807F46051C90A074F82
:101090007C5C4768E740C760F0BD0000083802404C
:1010A0000024F40000127A00010000200A00002051
:1010B00010B501460022002300204A11012A02D166
:1010C000074C236802E0064C3434236801F01F0209
:1010D000012494401C400CB1012000E0002010BD10
:1010E0000038024001490860704700000000474294
:1010F00000B589B00120FFF7F5FF00BF2120FFF701
:10110000D7FF0028FAD001210846FFF721FF102061
:10111000019003208DF8080000208DF80B0001A934
:101120001548FFF7B7FB01214802FFF721FF1348DD
:10113000FFF79AFA002003908DF810008DF8110047
:101140000590079001208DF8200003A90B48FFF7B8
:10115000A9FA0623012204210848FFF7CDFA01214C
:101160000648FFF775FA00BF40210448FFF790FAE0
:101170000028F9D009B000BD000002400024014061
:10118000704700000CB50020019000903E480068B8
:1011900040F480303C49086000BF3B48006800F4E0
:1011A000003000900198401C0190009818B90198F7
:1011B000B0F5A04FF1D13448006800F4003010B110
:1011C0000120009001E0002000900098012859D1F2
:1011D0002E48006840F004002C490860084600686A
:1011E00040F0020008600846006840F00100086016
:1011F00025482430006840F080502349243108609D
:10120000C8142349086000BF2148406800F010005E
:101210000028F9D11C48083000681B4908310860D3
:1012200008460068086008460068086008460068CC
:1012300020F47D0008600846006840F41100086052
:101240001148006840F080700F49086000BF0E48E8
:10125000006800F000700028F9D00B4808300068E2
:1012600020F003000849083108600846006840F093
:101270000300086000BF04480830006800F00C005C
:101280000C28F8D10CBD000000380240003C0240A0
:10129000007000407047000010B51548006840F429
:1012A00080701349086012480830006811490840EE
:1012B0000F49083108600E4800680F4908400C4982
:1012C00008600846006820F480200860084808305C
:1012D000006820F47D000649083108600020091DDF
:1012E0000860FFF74FFF4FF000600449086010BD31
:1012F000003802400CC0FF88FEFFFEEE08ED00E063
:101300001FB54FF4165000900C20ADF80A000020D5
:10131000ADF80600ADF80800ADF80400ADF80C001B
:10132000072206210E48FFF7F7FA072211460C485C
:10133000FFF7F2FA69460B4800F02EF9012240F25D
:101340002551084800F002F9012240F224410548E5
:1013500000F0FCF80121034800F0B5F81FBD0000C3
:1013600000040240003801401CB5402000900320DA
:101370008DF8050000208DF8070002208DF804008C
:1013800000208DF8060069460948FFF783FA80209F
:10139000009002208DF8040003208DF80500002045
:1013A0008DF8070069460248FFF774FA1CBD00007B
:1013B0000004024010B501218803FFF7D9FD012187
:1013C0000220FFF7C5FDFFF7CFFF00F009F8FFF798
:1013D00097FF002001490875487510BD1C000020CA
:1013E00008B525208DF8000000208DF801008DF84B
:1013F000020001208DF803006846FFF731FC08BDAC
:101400000146064849B1027D142A04DA037D5A1CBC
:101410000275C15401E00022027570471C000020D3
:1014200070B504460D46207888B10BE000BF40211E
:10143000074800F054F80128F9D114F8011B0448BA
:1014400000F015F9281EA5F10101CDB2EED170BD55
:101450000038014070B5124C40F22551114800F09F
:101460004BF801280BD140F225510E4800F01CF832
:101470000C4800F0F7F8C5B22846FFF7C1FF40F26C
:101480002441084800F038F8012808D105480088B0
:101490000448001D0088012060750020207570BD83
:1014A0001C0000200038014010B50022002340F647
:1014B0006A14A14200D100BF0A1201249440A3B2D1
:1014C000DC43048010BD21B1828942F40052828144
:1014D00004E082894DF6FF731A408281704702460C
:1014E0000020B1F5007F00D100BF13880B400BB185
:1014F000012000E00020704770B502460024002360
:101500000025002040F66A16B14200D100BFC1F3A9
:10151000421501F01F03012606FA03F3012D02D143
:101520009689334006E0022D02D1168A334001E04D
:10153000968A33400C12012606FA04F416883440C9
:1015400013B10CB1012000E0002070BDF0B50346DE
:10155000002400260025002040F66A17B94200D179
:1015600000BF1846C1F3421401F01F06012707FA15
:1015700006F5012C01D10C3004E0022C01D1103011
:1015800000E014301AB107682F43076002E00768D3
:10159000AF430760F0BD00002DE9FF4705460E464A
:1015A0000024A14600BFA046B08900B100BF2C8A2C
:1015B00024F44054F08804432C82AC8941F20C603E
:1015C0008443B08831890843718908430443AC815E
:1015D000AC8A24F44074B0890443AC826846FFF7B7
:1015E000E7FC1F48854202D1DDF80C9001E0DDF8F0
:1015F0000890A88900F4004040B109EBC90000EB55
:10160000091031684900B0FBF1F707E009EBC900A8
:1016100000EB091031688900B0FBF1F76420B7FBDB
:10162000F0F004012009642101FB1078A88900F47E
:10163000004040B1322000EBC800B0FBF1F000F0F8
:101640000700044308E0322000EB08106421B0FBDF
:10165000F1F000F00F0004432C81BDE8FF8700008B
:101660000038014001468888C0F308007047C1F384
:1016700008028280704700BFFEE7FFF70DFEFFF70C
:1016800037FDFFF77BFAFFF7DBFAFFF793FE01E088
:10169000FFF758FAFCE700002DE9C04130B4DFF84D
:1016A000A0C23CEA111418BF3CEA131400F0EC800D
:1016B00081EA03051CEA111444EAD57418BF1CEA38
:1016C000131500F0C780A4EB05044FF0004545EA70
:1016D000C12145EAC32341EA505143EA525304F180
:1016E0007F74994204F500344FEAC0204FEAC222C9
:1016F00008BF904200F09C804FEA13650FF240163D
:10170000765D4FEA134506FB05F7C7F1807706FBC8
:1017100007F74FEAD737A7FB03687642C8F580384A
:10172000A7FB06CE38BFA8F1010807FB08E64FF07B
:10173000000EA6FB028CE6FB03CEDCF1000CCEF122
:10174000004E38BFAEF1010EA6FB0C584FF000075B
:101750004FF00005E6FB0E87A1FB08C6A0FB07CEF5
:1017600016EB0E0645F10005E1FB076515F1E04EAD
:101770007EBFA4F580345FEA46066D4116F180070E
:1017800045F100054FEA17274FEA066647EA056765
:10179000A6F1DE46B6F1805F4FEA15251FD938461F
:1017A00024F0010C05EBC471BCF1FE6F01EB0C11D0
:1017B00002D8F0BCBDE8008124425CBF01F5801E68
:1017C0009EEAC47F02D4F0BCBDE80081244238D434
:1017D000F0BCA1F1C041BDE8004100F0F3B94FEA0F
:1017E000D22242EA43524FEAD323A7FB02864FEAB2
:1017F000D02040EA415007FB03661EEA0E0F4FEA75
:10180000D12105FB026658BFA6EB0056B6EB005689
:101810004FEA520E4EEAC37E18EB0E0E56EB530EF5
:10182000BDD518EB02085E417F1C55F10005B6E7F7
:101830004FF480154FF000074FF000064FF00008FE
:10184000ADE7F0BC4FF0000001F1C04101F00041F4
:10185000BDE8008111EA0C1F0CEA131500D00CE062
:1018600013EA0C1F00F025804FF00000F0BC81EA65
:10187000030101F00041BDE80081F0BCBDE800417A
:1018800081EA030100F09EB9F0BCBDE8004170B5EB
:1018900000F04AF9097EFC3E00F007B881EA030136
:1018A0004FF0000001F00041704781EA030100F0B1
:1018B00089B9F0BCBDE800414FF0000021497047F4
:1018C000FFFDFBF9F7F5F4F2F0EEEDEBE9E8E6E405
:1018D000E3E1E0DEDDDBDAD8D7D5D4D3D1D0CFCD8C
:1018E000CCCBCAC8C7C6C5C4C2C1C0BFBEBDBCBBC5
:1018F000BAB9B8B7B6B5B4B3B2B1B0AFAEADACABC0
:10190000AAA9A8A8A7A6A5A4A3A3A2A1A09F9F9E99
:101910009D9C9C9B9A99999897979695959493934B
:10192000929191908F8F8E8E8D8C8C8B8B8A8989E2
:101930008888878786858584848383828281818065
:101940000000FF070000F87F4FEA41034FEA5353BE
:10195000A3F58063D3F11E03C8BFD3F1210C0CDDC6
:101960004FF0004242EAC12242EA505232FA03FCEE
:101970008CEAE17CACEBE1707047102BC4BF002017
:10198000704703F5787CBCF1FF3F04D06FF0004254
:1019900082EA2100704770B500F0C6F849922480B1
:1019A00000207047F2E710F0004248BF4042B0FA12
:1019B00080F310FA03F10AD0C3F11D0303F580632D
:1019C0004FEA415002EB035202EBD12170474FF036
:1019D00000007047DFF848C170B51CEA111E1EBF39
:1019E0001CEA13159EEA0C0F95EA0C0F00F06F80AD
:1019F00081EA030423EA4C134EEAD47E21EA4C1117
:101A000041F4801143F48013AE44A1FB024CA0FBCF
:101A10000365AEF17F7E361955EB0C05A1FB034C37
:101A20004CF10003A0FB021C16EB0C06654153F1C0
:101A30000003094218BF46F0010613F4007F0BD1E2
:101A40004FEA03314FEA0530340341EA155140EAC9
:101A500016506FF003020AE04FEAC3214FEAC52097
:101A6000F40241EA555140EA56506FF0020202EB8F
:101A70002E4201EB025585EACE710AD05FEA440C92
:101A800018BF24F0004450F1000041F1000120EAA9
:101A9000D47040F2FE7C624500D270BDA84214BFF3
:101AA0004FF080444FF04044002E08BF0024BEF1A8
:101AB000806FA8BFA1F1C041BDE8704080F2828074
:101AC0004FF0000001F1C04101F0004170479EEA73
:101AD0000C0F0CEA131518BF95EA0C0F06D04FF047
:101AE000000081EA030E0EF0004170BD00F01CF80A
:101AF0008900013E00F007B800F009B84FEA430C36
:101B00005FEA5C5C08D081EA030100F05BB84FEA51
:101B1000410C5FEA5C5CF6D14FF000000149704770
:101B20000000FF070000F87F0EF1020E2EF0030EFA
:101B30005EF8046B364205D4012A43EB030515F524
:101B4000001F12D8012841EB010C1CF5001F0CD816
:101B50000ED14FEAD17C15F5001F0CEB4C0C0CF1AB
:101B6000020C08BF4CEBD37C04E04FF0080C01E002
:101B70004FEAD37C0CEB4C0526FA05F606F0070677
:101B8000B6F1040C06D20EEB860CBDE870404CF0AA
:101B9000010C6047DFE80CF0090B02024FF0004136
:101BA0004FF00000A1F5002170BD19461046012834
:101BB00051EB010418BFD4F5001484BF002001F0DC
:101BC000004170BD0808A0F500114FEA31017047CF
:101BD000F01B0008000000201C000000300100087D
:101BE0000C1C00081C0000209C0600004C01000892
:101BF00000030406080C1018203000000000010249
:0C1C0000030401020304060708090000A9
:04000005080000F5FA
:00000001FF
